{
  "_format": "hh-sol-artifact-1",
  "contractName": "EtherBallot",
  "sourceName": "contracts/etherballot.sol",
  "abi": [
    {
      "inputs": [
        {
          "internalType": "string[]",
          "name": "_candidateNames",
          "type": "string[]"
        }
      ],
      "stateMutability": "nonpayable",
      "type": "constructor"
    },
    {
      "anonymous": false,
      "inputs": [
        {
          "indexed": true,
          "internalType": "string",
          "name": "voterName",
          "type": "string"
        },
        {
          "indexed": true,
          "internalType": "string",
          "name": "candidateName",
          "type": "string"
        }
      ],
      "name": "VoteCast",
      "type": "event"
    },
    {
      "inputs": [
        {
          "internalType": "uint256",
          "name": "",
          "type": "uint256"
        }
      ],
      "name": "candidates",
      "outputs": [
        {
          "internalType": "string",
          "name": "name",
          "type": "string"
        },
        {
          "internalType": "uint256",
          "name": "voteCount",
          "type": "uint256"
        }
      ],
      "stateMutability": "view",
      "type": "function"
    },
    {
      "inputs": [],
      "name": "electionComm",
      "outputs": [
        {
          "internalType": "address payable",
          "name": "",
          "type": "address"
        }
      ],
      "stateMutability": "view",
      "type": "function"
    },
    {
      "inputs": [
        {
          "internalType": "uint256",
          "name": "index",
          "type": "uint256"
        }
      ],
      "name": "getCandidate",
      "outputs": [
        {
          "internalType": "string",
          "name": "",
          "type": "string"
        },
        {
          "internalType": "uint256",
          "name": "",
          "type": "uint256"
        }
      ],
      "stateMutability": "view",
      "type": "function"
    },
    {
      "inputs": [],
      "name": "getCandidateCount",
      "outputs": [
        {
          "internalType": "uint256",
          "name": "",
          "type": "uint256"
        }
      ],
      "stateMutability": "view",
      "type": "function"
    },
    {
      "inputs": [
        {
          "internalType": "string",
          "name": "_voterName",
          "type": "string"
        },
        {
          "internalType": "string",
          "name": "_candidate",
          "type": "string"
        }
      ],
      "name": "vote",
      "outputs": [],
      "stateMutability": "payable",
      "type": "function"
    },
    {
      "inputs": [],
      "name": "voteCountTotal",
      "outputs": [
        {
          "internalType": "uint256",
          "name": "",
          "type": "uint256"
        }
      ],
      "stateMutability": "view",
      "type": "function"
    },
    {
      "inputs": [
        {
          "internalType": "address",
          "name": "",
          "type": "address"
        }
      ],
      "name": "voters",
      "outputs": [
        {
          "internalType": "string",
          "name": "voterName",
          "type": "string"
        },
        {
          "internalType": "string",
          "name": "candidate",
          "type": "string"
        },
        {
          "internalType": "uint256",
          "name": "timestamp",
          "type": "uint256"
        },
        {
          "internalType": "bool",
          "name": "voted",
          "type": "bool"
        }
      ],
      "stateMutability": "view",
      "type": "function"
    }
  ],
  "bytecode": "0x6080604052600080553480156200001557600080fd5b5060405162001a9938038062001a9983398181016040528101906200003b9190620003b0565b33600260006101000a81548173ffffffffffffffffffffffffffffffffffffffff021916908373ffffffffffffffffffffffffffffffffffffffff16021790555060005b8151811015620001195760036040518060400160405280848481518110620000ac57620000ab62000401565b5b60200260200101518152602001600081525090806001815401808255809150506001900390600052602060002090600202016000909190919091506000820151816000019081620000fe91906200067b565b5060208201518160010155505080806001019150506200007f565b505062000762565b6000604051905090565b600080fd5b600080fd5b600080fd5b6000601f19601f8301169050919050565b7f4e487b7100000000000000000000000000000000000000000000000000000000600052604160045260246000fd5b62000185826200013a565b810181811067ffffffffffffffff82111715620001a757620001a66200014b565b5b80604052505050565b6000620001bc62000121565b9050620001ca82826200017a565b919050565b600067ffffffffffffffff821115620001ed57620001ec6200014b565b5b602082029050602081019050919050565b600080fd5b600080fd5b600067ffffffffffffffff8211156200022657620002256200014b565b5b62000231826200013a565b9050602081019050919050565b60005b838110156200025e57808201518184015260208101905062000241565b60008484015250505050565b6000620002816200027b8462000208565b620001b0565b905082815260208101848484011115620002a0576200029f62000203565b5b620002ad8482856200023e565b509392505050565b600082601f830112620002cd57620002cc62000135565b5b8151620002df8482602086016200026a565b91505092915050565b6000620002ff620002f984620001cf565b620001b0565b90508083825260208201905060208402830185811115620003255762000324620001fe565b5b835b818110156200037357805167ffffffffffffffff8111156200034e576200034d62000135565b5b8086016200035d8982620002b5565b8552602085019450505060208101905062000327565b5050509392505050565b600082601f83011262000395576200039462000135565b5b8151620003a7848260208601620002e8565b91505092915050565b600060208284031215620003c957620003c86200012b565b5b600082015167ffffffffffffffff811115620003ea57620003e962000130565b5b620003f8848285016200037d565b91505092915050565b7f4e487b7100000000000000000000000000000000000000000000000000000000600052603260045260246000fd5b600081519050919050565b7f4e487b7100000000000000000000000000000000000000000000000000000000600052602260045260246000fd5b600060028204905060018216806200048357607f821691505b6020821081036200049957620004986200043b565b5b50919050565b60008190508160005260206000209050919050565b60006020601f8301049050919050565b600082821b905092915050565b600060088302620005037fffffffffffffffffffffffffffffffffffffffffffffffffffffffffffffffff82620004c4565b6200050f8683620004c4565b95508019841693508086168417925050509392505050565b6000819050919050565b6000819050919050565b60006200055c62000556620005508462000527565b62000531565b62000527565b9050919050565b6000819050919050565b62000578836200053b565b62000590620005878262000563565b848454620004d1565b825550505050565b600090565b620005a762000598565b620005b48184846200056d565b505050565b5b81811015620005dc57620005d06000826200059d565b600181019050620005ba565b5050565b601f8211156200062b57620005f5816200049f565b6200060084620004b4565b8101602085101562000610578190505b620006286200061f85620004b4565b830182620005b9565b50505b505050565b600082821c905092915050565b6000620006506000198460080262000630565b1980831691505092915050565b60006200066b83836200063d565b9150826002028217905092915050565b620006868262000430565b67ffffffffffffffff811115620006a257620006a16200014b565b5b620006ae82546200046a565b620006bb828285620005e0565b600060209050601f831160018114620006f35760008415620006de578287015190505b620006ea85826200065d565b8655506200075a565b601f19841662000703866200049f565b60005b828110156200072d5784890151825560018201915060208501945060208101905062000706565b868310156200074d578489015162000749601f8916826200063d565b8355505b6001600288020188555050505b505050505050565b61132780620007726000396000f3fe6080604052600436106100705760003560e01c806335b8e8201161004e57806335b8e820146101095780635961e4fb14610147578063a3ec138d14610172578063e8d5940d146101b257610070565b8063066d0d771461007557806330a56347146100a05780633477ee2e146100cb575b600080fd5b34801561008157600080fd5b5061008a6101ce565b604051610097919061090d565b60405180910390f35b3480156100ac57600080fd5b506100b56101f4565b6040516100c29190610941565b60405180910390f35b3480156100d757600080fd5b506100f260048036038101906100ed9190610992565b610201565b604051610100929190610a4f565b60405180910390f35b34801561011557600080fd5b50610130600480360381019061012b9190610992565b6102bd565b60405161013e929190610a4f565b60405180910390f35b34801561015357600080fd5b5061015c6103e8565b6040516101699190610941565b60405180910390f35b34801561017e57600080fd5b5061019960048036038101906101949190610abd565b6103ee565b6040516101a99493929190610b05565b60405180910390f35b6101cc60048036038101906101c79190610bbd565b61053b565b005b600260009054906101000a900473ffffffffffffffffffffffffffffffffffffffff1681565b6000600380549050905090565b6003818154811061021157600080fd5b906000526020600020906002020160009150905080600001805461023490610c6d565b80601f016020809104026020016040519081016040528092919081815260200182805461026090610c6d565b80156102ad5780601f10610282576101008083540402835291602001916102ad565b820191906000526020600020905b81548152906001019060200180831161029057829003601f168201915b5050505050908060010154905082565b606060006003805490508310610308576040517f08c379a00000000000000000000000000000000000000000000000000000000081526004016102ff90610cea565b60405180910390fd5b6003838154811061031c5761031b610d0a565b5b90600052602060002090600202016000016003848154811061034157610340610d0a565b5b90600052602060002090600202016001015481805461035f90610c6d565b80601f016020809104026020016040519081016040528092919081815260200182805461038b90610c6d565b80156103d85780601f106103ad576101008083540402835291602001916103d8565b820191906000526020600020905b8154815290600101906020018083116103bb57829003601f168201915b5050505050915091509150915091565b60005481565b600160205280600052604060002060009150905080600001805461041190610c6d565b80601f016020809104026020016040519081016040528092919081815260200182805461043d90610c6d565b801561048a5780601f1061045f5761010080835404028352916020019161048a565b820191906000526020600020905b81548152906001019060200180831161046d57829003601f168201915b50505050509080600101805461049f90610c6d565b80601f01602080910402602001604051908101604052809291908181526020018280546104cb90610c6d565b80156105185780601f106104ed57610100808354040283529160200191610518565b820191906000526020600020905b8154815290600101906020018083116104fb57829003601f168201915b5050505050908060020154908060030160009054906101000a900460ff16905084565b6000341161057e576040517f08c379a000000000000000000000000000000000000000000000000000000000815260040161057590610d85565b60405180910390fd5b60001515600160003373ffffffffffffffffffffffffffffffffffffffff1673ffffffffffffffffffffffffffffffffffffffff16815260200190815260200160002060030160009054906101000a900460ff16151514610614576040517f08c379a000000000000000000000000000000000000000000000000000000000815260040161060b90610df1565b60405180910390fd5b6000805b6003805490508110156106cd578383604051610635929190610e50565b60405180910390206003828154811061065157610650610d0a565b5b906000526020600020906002020160000160405161066f9190610f01565b6040518091039020036106c057600191506003818154811061069457610693610d0a565b5b906000526020600020906002020160010160008154809291906106b690610f47565b91905055506106cd565b8080600101915050610618565b508061070e576040517f08c379a000000000000000000000000000000000000000000000000000000000815260040161070590610fdb565b60405180910390fd5b604051806080016040528086868080601f016020809104026020016040519081016040528093929190818152602001838380828437600081840152601f19601f82011690508083019250505050505050815260200184848080601f016020809104026020016040519081016040528093929190818152602001838380828437600081840152601f19601f82011690508083019250505050505050815260200142815260200160011515815250600160003373ffffffffffffffffffffffffffffffffffffffff1673ffffffffffffffffffffffffffffffffffffffff168152602001908152602001600020600082015181600001908161080e91906111d6565b50602082015181600101908161082491906111d6565b506040820151816002015560608201518160030160006101000a81548160ff02191690831515021790555090505060008081548092919061086490610f47565b919050555082826040516108799291906112d8565b604051809103902085856040516108919291906112d8565b60405180910390207f137ad23732468494166ec34d1367743690ffa17f6ceac8429cba8fc35d088b6e60405160405180910390a35050505050565b600073ffffffffffffffffffffffffffffffffffffffff82169050919050565b60006108f7826108cc565b9050919050565b610907816108ec565b82525050565b600060208201905061092260008301846108fe565b92915050565b6000819050919050565b61093b81610928565b82525050565b60006020820190506109566000830184610932565b92915050565b600080fd5b600080fd5b61096f81610928565b811461097a57600080fd5b50565b60008135905061098c81610966565b92915050565b6000602082840312156109a8576109a761095c565b5b60006109b68482850161097d565b91505092915050565b600081519050919050565b600082825260208201905092915050565b60005b838110156109f95780820151818401526020810190506109de565b60008484015250505050565b6000601f19601f8301169050919050565b6000610a21826109bf565b610a2b81856109ca565b9350610a3b8185602086016109db565b610a4481610a05565b840191505092915050565b60006040820190508181036000830152610a698185610a16565b9050610a786020830184610932565b9392505050565b6000610a8a826108cc565b9050919050565b610a9a81610a7f565b8114610aa557600080fd5b50565b600081359050610ab781610a91565b92915050565b600060208284031215610ad357610ad261095c565b5b6000610ae184828501610aa8565b91505092915050565b60008115159050919050565b610aff81610aea565b82525050565b60006080820190508181036000830152610b1f8187610a16565b90508181036020830152610b338186610a16565b9050610b426040830185610932565b610b4f6060830184610af6565b95945050505050565b600080fd5b600080fd5b600080fd5b60008083601f840112610b7d57610b7c610b58565b5b8235905067ffffffffffffffff811115610b9a57610b99610b5d565b5b602083019150836001820283011115610bb657610bb5610b62565b5b9250929050565b60008060008060408587031215610bd757610bd661095c565b5b600085013567ffffffffffffffff811115610bf557610bf4610961565b5b610c0187828801610b67565b9450945050602085013567ffffffffffffffff811115610c2457610c23610961565b5b610c3087828801610b67565b925092505092959194509250565b7f4e487b7100000000000000000000000000000000000000000000000000000000600052602260045260246000fd5b60006002820490506001821680610c8557607f821691505b602082108103610c9857610c97610c3e565b5b50919050565b7f496e76616c69642063616e64696461746520696e6465782e0000000000000000600082015250565b6000610cd46018836109ca565b9150610cdf82610c9e565b602082019050919050565b60006020820190508181036000830152610d0381610cc7565b9050919050565b7f4e487b7100000000000000000000000000000000000000000000000000000000600052603260045260246000fd5b7f506c656173652073656e64206d6f7265207468616e20302065746865722e0000600082015250565b6000610d6f601e836109ca565b9150610d7a82610d39565b602082019050919050565b60006020820190508181036000830152610d9e81610d62565b9050919050565b7f596f75206861766520616c726561647920766f7465642e000000000000000000600082015250565b6000610ddb6017836109ca565b9150610de682610da5565b602082019050919050565b60006020820190508181036000830152610e0a81610dce565b9050919050565b600081905092915050565b82818337600083830152505050565b6000610e378385610e11565b9350610e44838584610e1c565b82840190509392505050565b6000610e5d828486610e2b565b91508190509392505050565b60008190508160005260206000209050919050565b60008154610e8b81610c6d565b610e958186610e11565b94506001821660008114610eb05760018114610ec557610ef8565b60ff1983168652811515820286019350610ef8565b610ece85610e69565b60005b83811015610ef057815481890152600182019150602081019050610ed1565b838801955050505b50505092915050565b6000610f0d8284610e7e565b915081905092915050565b7f4e487b7100000000000000000000000000000000000000000000000000000000600052601160045260246000fd5b6000610f5282610928565b91507fffffffffffffffffffffffffffffffffffffffffffffffffffffffffffffffff8203610f8457610f83610f18565b5b600182019050919050565b7f43616e64696461746520646f6573206e6f742065786973742e00000000000000600082015250565b6000610fc56019836109ca565b9150610fd082610f8f565b602082019050919050565b60006020820190508181036000830152610ff481610fb8565b9050919050565b7f4e487b7100000000000000000000000000000000000000000000000000000000600052604160045260246000fd5b60008190508160005260206000209050919050565b60006020601f8301049050919050565b600082821b905092915050565b60006008830261108c7fffffffffffffffffffffffffffffffffffffffffffffffffffffffffffffffff8261104f565b611096868361104f565b95508019841693508086168417925050509392505050565b6000819050919050565b60006110d36110ce6110c984610928565b6110ae565b610928565b9050919050565b6000819050919050565b6110ed836110b8565b6111016110f9826110da565b84845461105c565b825550505050565b600090565b611116611109565b6111218184846110e4565b505050565b5b818110156111455761113a60008261110e565b600181019050611127565b5050565b601f82111561118a5761115b8161102a565b6111648461103f565b81016020851015611173578190505b61118761117f8561103f565b830182611126565b50505b505050565b600082821c905092915050565b60006111ad6000198460080261118f565b1980831691505092915050565b60006111c6838361119c565b9150826002028217905092915050565b6111df826109bf565b67ffffffffffffffff8111156111f8576111f7610ffb565b5b6112028254610c6d565b61120d828285611149565b600060209050601f831160018114611240576000841561122e578287015190505b61123885826111ba565b8655506112a0565b601f19841661124e8661102a565b60005b8281101561127657848901518255600182019150602085019450602081019050611251565b86831015611293578489015161128f601f89168261119c565b8355505b6001600288020188555050505b505050505050565b600081905092915050565b60006112bf83856112a8565b93506112cc838584610e1c565b82840190509392505050565b60006112e58284866112b3565b9150819050939250505056fea2646970667358221220e0637a12691d14eb93bc8c89b2391fb543684b8ea697aa2e69882fca9730603e64736f6c63430008180033",
  "linkReferences": {},
  "deployedLinkReferences": {}
}