{
  "_format": "hh-sol-artifact-1",
  "contractName": "etherballot",
  "sourceName": "contracts/etherballot.sol",
  "abi": [
    {
      "inputs": [],
      "stateMutability": "nonpayable",
      "type": "constructor"
    },
    {
      "anonymous": false,
      "inputs": [
        {
          "indexed": true,
          "internalType": "uint256",
          "name": "id",
          "type": "uint256"
        },
        {
          "indexed": false,
          "internalType": "uint256",
          "name": "startTime",
          "type": "uint256"
        },
        {
          "indexed": false,
          "internalType": "uint256",
          "name": "stopTime",
          "type": "uint256"
        },
        {
          "indexed": false,
          "internalType": "string",
          "name": "title",
          "type": "string"
        }
      ],
      "name": "ElectionCreated",
      "type": "event"
    },
    {
      "anonymous": false,
      "inputs": [
        {
          "indexed": true,
          "internalType": "uint256",
          "name": "electionId",
          "type": "uint256"
        },
        {
          "indexed": true,
          "internalType": "address",
          "name": "voter",
          "type": "address"
        },
        {
          "indexed": false,
          "internalType": "uint256",
          "name": "candidateIndex",
          "type": "uint256"
        }
      ],
      "name": "VoteCast",
      "type": "event"
    },
    {
      "anonymous": false,
      "inputs": [
        {
          "indexed": true,
          "internalType": "address",
          "name": "voter",
          "type": "address"
        }
      ],
      "name": "VoterAdded",
      "type": "event"
    },
    {
      "inputs": [
        {
          "internalType": "address",
          "name": "_voter",
          "type": "address"
        },
        {
          "internalType": "string",
          "name": "_name",
          "type": "string"
        }
      ],
      "name": "addToUniqueVoters",
      "outputs": [],
      "stateMutability": "nonpayable",
      "type": "function"
    },
    {
      "inputs": [
        {
          "internalType": "address",
          "name": "_voterAddress",
          "type": "address"
        },
        {
          "internalType": "uint256",
          "name": "_electionId",
          "type": "uint256"
        }
      ],
      "name": "checkIfVoted",
      "outputs": [
        {
          "internalType": "bool",
          "name": "",
          "type": "bool"
        }
      ],
      "stateMutability": "view",
      "type": "function"
    },
    {
      "inputs": [
        {
          "internalType": "uint256",
          "name": "_startTime",
          "type": "uint256"
        },
        {
          "internalType": "uint256",
          "name": "_stopTime",
          "type": "uint256"
        },
        {
          "internalType": "string[]",
          "name": "_candidates",
          "type": "string[]"
        },
        {
          "internalType": "string",
          "name": "_name",
          "type": "string"
        }
      ],
      "name": "createElection",
      "outputs": [],
      "stateMutability": "nonpayable",
      "type": "function"
    },
    {
      "inputs": [],
      "name": "electionCounter",
      "outputs": [
        {
          "internalType": "uint256",
          "name": "",
          "type": "uint256"
        }
      ],
      "stateMutability": "view",
      "type": "function"
    },
    {
      "inputs": [
        {
          "internalType": "uint256",
          "name": "",
          "type": "uint256"
        }
      ],
      "name": "elections",
      "outputs": [
        {
          "internalType": "uint256",
          "name": "id",
          "type": "uint256"
        },
        {
          "internalType": "uint256",
          "name": "startTime",
          "type": "uint256"
        },
        {
          "internalType": "uint256",
          "name": "stopTime",
          "type": "uint256"
        },
        {
          "internalType": "string",
          "name": "title",
          "type": "string"
        }
      ],
      "stateMutability": "view",
      "type": "function"
    },
    {
      "inputs": [],
      "name": "getAllElections",
      "outputs": [
        {
          "components": [
            {
              "internalType": "uint256[3]",
              "name": "electionDetails",
              "type": "uint256[3]"
            },
            {
              "components": [
                {
                  "internalType": "string",
                  "name": "name",
                  "type": "string"
                },
                {
                  "internalType": "uint256",
                  "name": "voteCount",
                  "type": "uint256"
                }
              ],
              "internalType": "struct etherballot.Candidate[]",
              "name": "candidates",
              "type": "tuple[]"
            },
            {
              "internalType": "string",
              "name": "title",
              "type": "string"
            }
          ],
          "internalType": "struct etherballot.ElectionReturnValue[]",
          "name": "",
          "type": "tuple[]"
        }
      ],
      "stateMutability": "view",
      "type": "function"
    },
    {
      "inputs": [
        {
          "internalType": "uint256",
          "name": "_electionId",
          "type": "uint256"
        }
      ],
      "name": "getElectionById",
      "outputs": [
        {
          "components": [
            {
              "internalType": "uint256[3]",
              "name": "electionDetails",
              "type": "uint256[3]"
            },
            {
              "components": [
                {
                  "internalType": "string",
                  "name": "name",
                  "type": "string"
                },
                {
                  "internalType": "uint256",
                  "name": "voteCount",
                  "type": "uint256"
                }
              ],
              "internalType": "struct etherballot.Candidate[]",
              "name": "candidates",
              "type": "tuple[]"
            },
            {
              "internalType": "string",
              "name": "title",
              "type": "string"
            }
          ],
          "internalType": "struct etherballot.ElectionReturnValue",
          "name": "",
          "type": "tuple"
        }
      ],
      "stateMutability": "view",
      "type": "function"
    },
    {
      "inputs": [
        {
          "internalType": "address",
          "name": "_voter",
          "type": "address"
        }
      ],
      "name": "getName",
      "outputs": [
        {
          "internalType": "string",
          "name": "",
          "type": "string"
        }
      ],
      "stateMutability": "view",
      "type": "function"
    },
    {
      "inputs": [],
      "name": "owner",
      "outputs": [
        {
          "internalType": "address",
          "name": "",
          "type": "address"
        }
      ],
      "stateMutability": "view",
      "type": "function"
    },
    {
      "inputs": [
        {
          "internalType": "uint256",
          "name": "_electionId",
          "type": "uint256"
        },
        {
          "internalType": "string",
          "name": "_voterName",
          "type": "string"
        },
        {
          "internalType": "uint256",
          "name": "_candidateIndex",
          "type": "uint256"
        }
      ],
      "name": "vote",
      "outputs": [],
      "stateMutability": "payable",
      "type": "function"
    },
    {
      "inputs": [
        {
          "internalType": "address",
          "name": "",
          "type": "address"
        }
      ],
      "name": "voterNameAddress",
      "outputs": [
        {
          "internalType": "string",
          "name": "",
          "type": "string"
        }
      ],
      "stateMutability": "view",
      "type": "function"
    }
  ],
  "bytecode": "0x608060405234801561001057600080fd5b50336000806101000a81548173ffffffffffffffffffffffffffffffffffffffff021916908373ffffffffffffffffffffffffffffffffffffffff1602179055506001808190555061235c806100676000396000f3fe60806040526004361061009c5760003560e01c80637022a5d7116100645780637022a5d7146101af5780637fd5f268146101d85780638da5cb5b14610203578063c6958b121461022e578063e43e8a0e1461026b578063f0f45457146102a85761009c565b806324a8ea46146100a15780633e7d4dbd146100ca5780635e6fef01146101075780635fd4b08a1461014757806361e3741714610184575b600080fd5b3480156100ad57600080fd5b506100c860048036038101906100c39190611457565b6102c4565b005b3480156100d657600080fd5b506100f160048036038101906100ec9190611554565b610444565b6040516100fe91906115af565b60405180910390f35b34801561011357600080fd5b5061012e600480360381019061012991906115ca565b6104c6565b60405161013e9493929190611685565b60405180910390f35b34801561015357600080fd5b5061016e600480360381019061016991906116d1565b61057e565b60405161017b91906116fe565b60405180910390f35b34801561019057600080fd5b5061019961064f565b6040516101a69190611720565b60405180910390f35b3480156101bb57600080fd5b506101d660048036038101906101d1919061173b565b610655565b005b3480156101e457600080fd5b506101ed610732565b6040516101fa9190611aa4565b60405180910390f35b34801561020f57600080fd5b50610218610a3d565b6040516102259190611ad5565b60405180910390f35b34801561023a57600080fd5b50610255600480360381019061025091906115ca565b610a61565b6040516102629190611b47565b60405180910390f35b34801561027757600080fd5b50610292600480360381019061028d91906116d1565b610cd3565b60405161029f91906116fe565b60405180910390f35b6102c260048036038101906102bd9190611b69565b610d73565b005b828410610306576040517f08c379a00000000000000000000000000000000000000000000000000000000081526004016102fd90611c4a565b60405180910390fd5b6000600260006001548152602001908152602001600020905060015481600001819055508481600101819055508381600201819055508181600301908161034d9190611e76565b5060005b83518110156103e65781600401604051806040016040528086848151811061037c5761037b611f48565b5b602002602001015181526020016000815250908060018154018082558091505060019003906000526020600020906002020160009091909190915060008201518160000190816103cc9190611e76565b506020820151816001015550508080600101915050610351565b506001547fc80cc2e5feebb8f2584e582a73d11665ee4037c2de81af1f971e18611fbceab186868560405161041d93929190611f77565b60405180910390a26001600081548092919061043890611fe4565b91905055505050505050565b60008060009050600115156002600085815260200190815260200160002060050160008673ffffffffffffffffffffffffffffffffffffffff1673ffffffffffffffffffffffffffffffffffffffff16815260200190815260200160002060009054906101000a900460ff161515036104bc57600190505b8091505092915050565b60026020528060005260406000206000915090508060000154908060010154908060020154908060030180546104fb90611c99565b80601f016020809104026020016040519081016040528092919081815260200182805461052790611c99565b80156105745780601f1061054957610100808354040283529160200191610574565b820191906000526020600020905b81548152906001019060200180831161055757829003601f168201915b5050505050905084565b6060600360008373ffffffffffffffffffffffffffffffffffffffff1673ffffffffffffffffffffffffffffffffffffffff16815260200190815260200160002080546105ca90611c99565b80601f01602080910402602001604051908101604052809291908181526020018280546105f690611c99565b80156106435780601f1061061857610100808354040283529160200191610643565b820191906000526020600020905b81548152906001019060200180831161062657829003601f168201915b50505050509050919050565b60015481565b61065e82611140565b1561069e576040517f08c379a00000000000000000000000000000000000000000000000000000000081526004016106959061209e565b60405180910390fd5b80600360008473ffffffffffffffffffffffffffffffffffffffff1673ffffffffffffffffffffffffffffffffffffffff16815260200190815260200160002090816106ea9190611e76565b508173ffffffffffffffffffffffffffffffffffffffff167fa636f4a11e2d3ba7f89d042ecb0a6b886716e98cd49d8fd876ee0f73bced42b860405160405180910390a25050565b6060600060015467ffffffffffffffff81111561075257610751611241565b5b60405190808252806020026020018201604052801561078b57816020015b610778611198565b8152602001906001900390816107705790505b5090506000600190505b600154811015610a35576000600260008381526020019081526020016000206000015414610a285760405180606001604052806002600084815260200190815260200160002060000154815260200160026000848152602001908152602001600020600101548152602001600260008481526020019081526020016000206002015481525082828151811061082d5761082c611f48565b5b60200260200101516000018190525060026000828152602001908152602001600020600401805480602002602001604051908101604052809291908181526020016000905b8282101561094057838290600052602060002090600202016040518060400160405290816000820180546108a590611c99565b80601f01602080910402602001604051908101604052809291908181526020018280546108d190611c99565b801561091e5780601f106108f35761010080835404028352916020019161091e565b820191906000526020600020905b81548152906001019060200180831161090157829003601f168201915b5050505050815260200160018201548152505081526020019060010190610872565b5050505082828151811061095757610956611f48565b5b60200260200101516020018190525060026000828152602001908152602001600020600301805461098790611c99565b80601f01602080910402602001604051908101604052809291908181526020018280546109b390611c99565b8015610a005780601f106109d557610100808354040283529160200191610a00565b820191906000526020600020905b8154815290600101906020018083116109e357829003601f168201915b5050505050828281518110610a1857610a17611f48565b5b6020026020010151604001819052505b8080600101915050610795565b508091505090565b60008054906101000a900473ffffffffffffffffffffffffffffffffffffffff1681565b610a69611198565b610a71611198565b6000600190505b600154811015610cc95783600260008381526020019081526020016000206000015403610cbc57604051806060016040528060026000848152602001908152602001600020600001548152602001600260008481526020019081526020016000206001015481526020016002600084815260200190815260200160002060020154815250826000018190525060026000828152602001908152602001600020600401805480602002602001604051908101604052809291908181526020016000905b82821015610c085783829060005260206000209060020201604051806040016040529081600082018054610b6d90611c99565b80601f0160208091040260200160405190810160405280929190818152602001828054610b9990611c99565b8015610be65780601f10610bbb57610100808354040283529160200191610be6565b820191906000526020600020905b815481529060010190602001808311610bc957829003601f168201915b5050505050815260200160018201548152505081526020019060010190610b3a565b505050508260200181905250600260008281526020019081526020016000206003018054610c3590611c99565b80601f0160208091040260200160405190810160405280929190818152602001828054610c6190611c99565b8015610cae5780601f10610c8357610100808354040283529160200191610cae565b820191906000526020600020905b815481529060010190602001808311610c9157829003601f168201915b505050505082604001819052505b8080600101915050610a78565b5080915050919050565b60036020528060005260406000206000915090508054610cf290611c99565b80601f0160208091040260200160405190810160405280929190818152602001828054610d1e90611c99565b8015610d6b5780601f10610d4057610100808354040283529160200191610d6b565b820191906000526020600020905b815481529060010190602001808311610d4e57829003601f168201915b505050505081565b600154831115610db8576040517f08c379a0000000000000000000000000000000000000000000000000000000008152600401610daf9061210a565b60405180910390fd5b60026000848152602001908152602001600020600401805490508110610e13576040517f08c379a0000000000000000000000000000000000000000000000000000000008152600401610e0a90612176565b60405180910390fd5b610e1c33611140565b610e5b576040517f08c379a0000000000000000000000000000000000000000000000000000000008152600401610e52906121e2565b60405180910390fd5b60026000848152602001908152602001600020600101544210158015610e97575060026000848152602001908152602001600020600201544211155b610ed6576040517f08c379a0000000000000000000000000000000000000000000000000000000008152600401610ecd90612274565b60405180910390fd5b6002600084815260200190815260200160002060050160003373ffffffffffffffffffffffffffffffffffffffff1673ffffffffffffffffffffffffffffffffffffffff16815260200190815260200160002060009054906101000a900460ff1615610f77576040517f08c379a0000000000000000000000000000000000000000000000000000000008152600401610f6e90612306565b60405180910390fd5b60016002600085815260200190815260200160002060050160003373ffffffffffffffffffffffffffffffffffffffff1673ffffffffffffffffffffffffffffffffffffffff16815260200190815260200160002060006101000a81548160ff02191690831515021790555060026000848152602001908152602001600020600401818154811061100b5761100a611f48565b5b9060005260206000209060020201600101600081548092919061102d90611fe4565b919050555060006040518060600160405280848152602001428152602001600115158152509050806002600086815260200190815260200160002060060160003373ffffffffffffffffffffffffffffffffffffffff1673ffffffffffffffffffffffffffffffffffffffff16815260200190815260200160002060008201518160000190816110bd9190611e76565b506020820151816001015560408201518160020160006101000a81548160ff0219169083151502179055509050503373ffffffffffffffffffffffffffffffffffffffff16847f2acce567deca3aabf56327adbb4524bd5318936eaefa69e3a5208ffda0cfec09846040516111329190611720565b60405180910390a350505050565b600080600360008473ffffffffffffffffffffffffffffffffffffffff1673ffffffffffffffffffffffffffffffffffffffff168152602001908152602001600020805461118d90611c99565b905014159050919050565b60405180606001604052806111ab6111bf565b815260200160608152602001606081525090565b6040518060600160405280600390602082028036833780820191505090505090565b6000604051905090565b600080fd5b600080fd5b6000819050919050565b611208816111f5565b811461121357600080fd5b50565b600081359050611225816111ff565b92915050565b600080fd5b6000601f19601f8301169050919050565b7f4e487b7100000000000000000000000000000000000000000000000000000000600052604160045260246000fd5b61127982611230565b810181811067ffffffffffffffff8211171561129857611297611241565b5b80604052505050565b60006112ab6111e1565b90506112b78282611270565b919050565b600067ffffffffffffffff8211156112d7576112d6611241565b5b602082029050602081019050919050565b600080fd5b600080fd5b600067ffffffffffffffff82111561130d5761130c611241565b5b61131682611230565b9050602081019050919050565b82818337600083830152505050565b6000611345611340846112f2565b6112a1565b905082815260208101848484011115611361576113606112ed565b5b61136c848285611323565b509392505050565b600082601f8301126113895761138861122b565b5b8135611399848260208601611332565b91505092915050565b60006113b56113b0846112bc565b6112a1565b905080838252602082019050602084028301858111156113d8576113d76112e8565b5b835b8181101561141f57803567ffffffffffffffff8111156113fd576113fc61122b565b5b80860161140a8982611374565b855260208501945050506020810190506113da565b5050509392505050565b600082601f83011261143e5761143d61122b565b5b813561144e8482602086016113a2565b91505092915050565b60008060008060808587031215611471576114706111eb565b5b600061147f87828801611216565b945050602061149087828801611216565b935050604085013567ffffffffffffffff8111156114b1576114b06111f0565b5b6114bd87828801611429565b925050606085013567ffffffffffffffff8111156114de576114dd6111f0565b5b6114ea87828801611374565b91505092959194509250565b600073ffffffffffffffffffffffffffffffffffffffff82169050919050565b6000611521826114f6565b9050919050565b61153181611516565b811461153c57600080fd5b50565b60008135905061154e81611528565b92915050565b6000806040838503121561156b5761156a6111eb565b5b60006115798582860161153f565b925050602061158a85828601611216565b9150509250929050565b60008115159050919050565b6115a981611594565b82525050565b60006020820190506115c460008301846115a0565b92915050565b6000602082840312156115e0576115df6111eb565b5b60006115ee84828501611216565b91505092915050565b611600816111f5565b82525050565b600081519050919050565b600082825260208201905092915050565b60005b83811015611640578082015181840152602081019050611625565b60008484015250505050565b600061165782611606565b6116618185611611565b9350611671818560208601611622565b61167a81611230565b840191505092915050565b600060808201905061169a60008301876115f7565b6116a760208301866115f7565b6116b460408301856115f7565b81810360608301526116c6818461164c565b905095945050505050565b6000602082840312156116e7576116e66111eb565b5b60006116f58482850161153f565b91505092915050565b60006020820190508181036000830152611718818461164c565b905092915050565b600060208201905061173560008301846115f7565b92915050565b60008060408385031215611752576117516111eb565b5b60006117608582860161153f565b925050602083013567ffffffffffffffff811115611781576117806111f0565b5b61178d85828601611374565b9150509250929050565b600081519050919050565b600082825260208201905092915050565b6000819050602082019050919050565b600060039050919050565b600081905092915050565b6000819050919050565b6117ec816111f5565b82525050565b60006117fe83836117e3565b60208301905092915050565b6000602082019050919050565b611820816117c3565b61182a81846117ce565b9250611835826117d9565b8060005b8381101561186657815161184d87826117f2565b96506118588361180a565b925050600181019050611839565b505050505050565b600081519050919050565b600082825260208201905092915050565b6000819050602082019050919050565b600082825260208201905092915050565b60006118b682611606565b6118c0818561189a565b93506118d0818560208601611622565b6118d981611230565b840191505092915050565b6000604083016000830151848203600086015261190182826118ab565b915050602083015161191660208601826117e3565b508091505092915050565b600061192d83836118e4565b905092915050565b6000602082019050919050565b600061194d8261186e565b6119578185611879565b9350836020820285016119698561188a565b8060005b858110156119a557848403895281516119868582611921565b945061199183611935565b925060208a0199505060018101905061196d565b50829750879550505050505092915050565b600060a0830160008301516119cf6000860182611817565b50602083015184820360608601526119e78282611942565b91505060408301518482036080860152611a0182826118ab565b9150508091505092915050565b6000611a1a83836119b7565b905092915050565b6000602082019050919050565b6000611a3a82611797565b611a4481856117a2565b935083602082028501611a56856117b3565b8060005b85811015611a925784840389528151611a738582611a0e565b9450611a7e83611a22565b925060208a01995050600181019050611a5a565b50829750879550505050505092915050565b60006020820190508181036000830152611abe8184611a2f565b905092915050565b611acf81611516565b82525050565b6000602082019050611aea6000830184611ac6565b92915050565b600060a083016000830151611b086000860182611817565b5060208301518482036060860152611b208282611942565b91505060408301518482036080860152611b3a82826118ab565b9150508091505092915050565b60006020820190508181036000830152611b618184611af0565b905092915050565b600080600060608486031215611b8257611b816111eb565b5b6000611b9086828701611216565b935050602084013567ffffffffffffffff811115611bb157611bb06111f0565b5b611bbd86828701611374565b9250506040611bce86828701611216565b9150509250925092565b7f53746172742074696d65206d757374206265206265666f72652073746f70207460008201527f696d650000000000000000000000000000000000000000000000000000000000602082015250565b6000611c34602383611611565b9150611c3f82611bd8565b604082019050919050565b60006020820190508181036000830152611c6381611c27565b9050919050565b7f4e487b7100000000000000000000000000000000000000000000000000000000600052602260045260246000fd5b60006002820490506001821680611cb157607f821691505b602082108103611cc457611cc3611c6a565b5b50919050565b60008190508160005260206000209050919050565b60006020601f8301049050919050565b600082821b905092915050565b600060088302611d2c7fffffffffffffffffffffffffffffffffffffffffffffffffffffffffffffffff82611cef565b611d368683611cef565b95508019841693508086168417925050509392505050565b6000819050919050565b6000611d73611d6e611d69846111f5565b611d4e565b6111f5565b9050919050565b6000819050919050565b611d8d83611d58565b611da1611d9982611d7a565b848454611cfc565b825550505050565b600090565b611db6611da9565b611dc1818484611d84565b505050565b5b81811015611de557611dda600082611dae565b600181019050611dc7565b5050565b601f821115611e2a57611dfb81611cca565b611e0484611cdf565b81016020851015611e13578190505b611e27611e1f85611cdf565b830182611dc6565b50505b505050565b600082821c905092915050565b6000611e4d60001984600802611e2f565b1980831691505092915050565b6000611e668383611e3c565b9150826002028217905092915050565b611e7f82611606565b67ffffffffffffffff811115611e9857611e97611241565b5b611ea28254611c99565b611ead828285611de9565b600060209050601f831160018114611ee05760008415611ece578287015190505b611ed88582611e5a565b865550611f40565b601f198416611eee86611cca565b60005b82811015611f1657848901518255600182019150602085019450602081019050611ef1565b86831015611f335784890151611f2f601f891682611e3c565b8355505b6001600288020188555050505b505050505050565b7f4e487b7100000000000000000000000000000000000000000000000000000000600052603260045260246000fd5b6000606082019050611f8c60008301866115f7565b611f9960208301856115f7565b8181036040830152611fab818461164c565b9050949350505050565b7f4e487b7100000000000000000000000000000000000000000000000000000000600052601160045260246000fd5b6000611fef826111f5565b91507fffffffffffffffffffffffffffffffffffffffffffffffffffffffffffffffff820361202157612020611fb5565b5b600182019050919050565b7f566f74657220616c72656164792070726573656e7420696e2074686520756e6960008201527f71756520766f74657273206d617070696e670000000000000000000000000000602082015250565b6000612088603283611611565b91506120938261202c565b604082019050919050565b600060208201905081810360008301526120b78161207b565b9050919050565b7f456c656374696f6e20496e646578206f7574206f6620626f756e647300000000600082015250565b60006120f4601c83611611565b91506120ff826120be565b602082019050919050565b60006020820190508181036000830152612123816120e7565b9050919050565b7f43616e64696461746520496e646578206f7574206f6620626f756e6473000000600082015250565b6000612160601d83611611565b915061216b8261212a565b602082019050919050565b6000602082019050818103600083015261218f81612153565b9050919050565b7f596f7520617265206e6f7420616c6c6f77656420746f20766f74650000000000600082015250565b60006121cc601b83611611565b91506121d782612196565b602082019050919050565b600060208201905081810360008301526121fb816121bf565b9050919050565b7f566f74696e67206973206e6f7420616c6c6f776564206174207468697320746960008201527f6d65000000000000000000000000000000000000000000000000000000000000602082015250565b600061225e602283611611565b915061226982612202565b604082019050919050565b6000602082019050818103600083015261228d81612251565b9050919050565b7f596f75206861766520616c726561647920766f74656420696e2074686973206560008201527f6c656374696f6e00000000000000000000000000000000000000000000000000602082015250565b60006122f0602783611611565b91506122fb82612294565b604082019050919050565b6000602082019050818103600083015261231f816122e3565b905091905056fea26469706673582212201f955ceaec98c0867a545960930db925a1007b75fad4c7c50aadeded7f5198ac64736f6c63430008180033",
  "linkReferences": {},
  "deployedLinkReferences": {}
}