{
  "_format": "hh-sol-artifact-1",
  "contractName": "etherballot",
  "sourceName": "contracts/etherballot.sol",
  "abi": [
    {
      "inputs": [],
      "stateMutability": "nonpayable",
      "type": "constructor"
    },
    {
      "anonymous": false,
      "inputs": [
        {
          "indexed": true,
          "internalType": "uint256",
          "name": "id",
          "type": "uint256"
        },
        {
          "indexed": false,
          "internalType": "uint256",
          "name": "startTime",
          "type": "uint256"
        },
        {
          "indexed": false,
          "internalType": "uint256",
          "name": "stopTime",
          "type": "uint256"
        },
        {
          "indexed": false,
          "internalType": "string",
          "name": "title",
          "type": "string"
        }
      ],
      "name": "ElectionCreated",
      "type": "event"
    },
    {
      "anonymous": false,
      "inputs": [
        {
          "indexed": true,
          "internalType": "uint256",
          "name": "electionId",
          "type": "uint256"
        },
        {
          "indexed": true,
          "internalType": "address",
          "name": "voter",
          "type": "address"
        },
        {
          "indexed": false,
          "internalType": "uint256",
          "name": "candidateIndex",
          "type": "uint256"
        }
      ],
      "name": "VoteCast",
      "type": "event"
    },
    {
      "anonymous": false,
      "inputs": [
        {
          "indexed": true,
          "internalType": "address",
          "name": "voter",
          "type": "address"
        }
      ],
      "name": "VoterAdded",
      "type": "event"
    },
    {
      "inputs": [
        {
          "internalType": "address",
          "name": "_voter",
          "type": "address"
        },
        {
          "internalType": "string",
          "name": "_name",
          "type": "string"
        }
      ],
      "name": "addToUniqueVoters",
      "outputs": [],
      "stateMutability": "nonpayable",
      "type": "function"
    },
    {
      "inputs": [
        {
          "internalType": "uint256",
          "name": "_startTime",
          "type": "uint256"
        },
        {
          "internalType": "uint256",
          "name": "_stopTime",
          "type": "uint256"
        },
        {
          "internalType": "string[]",
          "name": "_candidates",
          "type": "string[]"
        },
        {
          "internalType": "string",
          "name": "_name",
          "type": "string"
        }
      ],
      "name": "createElection",
      "outputs": [],
      "stateMutability": "nonpayable",
      "type": "function"
    },
    {
      "inputs": [],
      "name": "electionCounter",
      "outputs": [
        {
          "internalType": "uint256",
          "name": "",
          "type": "uint256"
        }
      ],
      "stateMutability": "view",
      "type": "function"
    },
    {
      "inputs": [
        {
          "internalType": "uint256",
          "name": "",
          "type": "uint256"
        }
      ],
      "name": "elections",
      "outputs": [
        {
          "internalType": "uint256",
          "name": "id",
          "type": "uint256"
        },
        {
          "internalType": "uint256",
          "name": "startTime",
          "type": "uint256"
        },
        {
          "internalType": "uint256",
          "name": "stopTime",
          "type": "uint256"
        },
        {
          "internalType": "string",
          "name": "title",
          "type": "string"
        }
      ],
      "stateMutability": "view",
      "type": "function"
    },
    {
      "inputs": [],
      "name": "getAllElections",
      "outputs": [
        {
          "components": [
            {
              "internalType": "uint256[3]",
              "name": "electionDetails",
              "type": "uint256[3]"
            },
            {
              "components": [
                {
                  "internalType": "string",
                  "name": "name",
                  "type": "string"
                },
                {
                  "internalType": "uint256",
                  "name": "voteCount",
                  "type": "uint256"
                }
              ],
              "internalType": "struct etherballot.Candidate[]",
              "name": "candidates",
              "type": "tuple[]"
            },
            {
              "internalType": "string",
              "name": "title",
              "type": "string"
            }
          ],
          "internalType": "struct etherballot.ElectionReturnValue[]",
          "name": "",
          "type": "tuple[]"
        }
      ],
      "stateMutability": "view",
      "type": "function"
    },
    {
      "inputs": [
        {
          "internalType": "address",
          "name": "_voter",
          "type": "address"
        }
      ],
      "name": "getName",
      "outputs": [
        {
          "internalType": "string",
          "name": "",
          "type": "string"
        }
      ],
      "stateMutability": "view",
      "type": "function"
    },
    {
      "inputs": [],
      "name": "owner",
      "outputs": [
        {
          "internalType": "address",
          "name": "",
          "type": "address"
        }
      ],
      "stateMutability": "view",
      "type": "function"
    },
    {
      "inputs": [
        {
          "internalType": "uint256",
          "name": "_electionId",
          "type": "uint256"
        },
        {
          "internalType": "string",
          "name": "_voterName",
          "type": "string"
        },
        {
          "internalType": "uint256",
          "name": "_candidateIndex",
          "type": "uint256"
        }
      ],
      "name": "vote",
      "outputs": [],
      "stateMutability": "payable",
      "type": "function"
    },
    {
      "inputs": [
        {
          "internalType": "address",
          "name": "",
          "type": "address"
        }
      ],
      "name": "voterNameAddress",
      "outputs": [
        {
          "internalType": "string",
          "name": "",
          "type": "string"
        }
      ],
      "stateMutability": "view",
      "type": "function"
    }
  ],
  "bytecode": "0x608060405234801561001057600080fd5b50336000806101000a81548173ffffffffffffffffffffffffffffffffffffffff021916908373ffffffffffffffffffffffffffffffffffffffff1602179055506000600181905550611ec6806100686000396000f3fe6080604052600436106100865760003560e01c80637022a5d7116100595780637022a5d71461015c5780637fd5f268146101855780638da5cb5b146101b0578063e43e8a0e146101db578063f0f454571461021857610086565b806324a8ea461461008b5780635e6fef01146100b45780635fd4b08a146100f457806361e3741714610131575b600080fd5b34801561009757600080fd5b506100b260048036038101906100ad91906110b0565b610234565b005b3480156100c057600080fd5b506100db60048036038101906100d6919061114f565b6103b4565b6040516100eb949392919061120a565b60405180910390f35b34801561010057600080fd5b5061011b600480360381019061011691906112b4565b61046c565b60405161012891906112e1565b60405180910390f35b34801561013d57600080fd5b5061014661053d565b6040516101539190611303565b60405180910390f35b34801561016857600080fd5b50610183600480360381019061017e919061131e565b610543565b005b34801561019157600080fd5b5061019a610620565b6040516101a79190611687565b60405180910390f35b3480156101bc57600080fd5b506101c5610908565b6040516101d291906116b8565b60405180910390f35b3480156101e757600080fd5b5061020260048036038101906101fd91906112b4565b61092c565b60405161020f91906112e1565b60405180910390f35b610232600480360381019061022d91906116d3565b6109cc565b005b828410610276576040517f08c379a000000000000000000000000000000000000000000000000000000000815260040161026d906117b4565b60405180910390fd5b600060026000600154815260200190815260200160002090506001548160000181905550848160010181905550838160020181905550818160030190816102bd91906119e0565b5060005b8351811015610356578160040160405180604001604052808684815181106102ec576102eb611ab2565b5b6020026020010151815260200160008152509080600181540180825580915050600190039060005260206000209060020201600090919091909150600082015181600001908161033c91906119e0565b5060208201518160010155505080806001019150506102c1565b506001547fc80cc2e5feebb8f2584e582a73d11665ee4037c2de81af1f971e18611fbceab186868560405161038d93929190611ae1565b60405180910390a2600160008154809291906103a890611b4e565b91905055505050505050565b60026020528060005260406000206000915090508060000154908060010154908060020154908060030180546103e990611803565b80601f016020809104026020016040519081016040528092919081815260200182805461041590611803565b80156104625780601f1061043757610100808354040283529160200191610462565b820191906000526020600020905b81548152906001019060200180831161044557829003601f168201915b5050505050905084565b6060600360008373ffffffffffffffffffffffffffffffffffffffff1673ffffffffffffffffffffffffffffffffffffffff16815260200190815260200160002080546104b890611803565b80601f01602080910402602001604051908101604052809291908181526020018280546104e490611803565b80156105315780601f1061050657610100808354040283529160200191610531565b820191906000526020600020905b81548152906001019060200180831161051457829003601f168201915b50505050509050919050565b60015481565b61054c82610d99565b1561058c576040517f08c379a000000000000000000000000000000000000000000000000000000000815260040161058390611c08565b60405180910390fd5b80600360008473ffffffffffffffffffffffffffffffffffffffff1673ffffffffffffffffffffffffffffffffffffffff16815260200190815260200160002090816105d891906119e0565b508173ffffffffffffffffffffffffffffffffffffffff167fa636f4a11e2d3ba7f89d042ecb0a6b886716e98cd49d8fd876ee0f73bced42b860405160405180910390a25050565b6060600060015467ffffffffffffffff8111156106405761063f610e9a565b5b60405190808252806020026020018201604052801561067957816020015b610666610df1565b81526020019060019003908161065e5790505b50905060005b600154811015610900576040518060600160405280600260008481526020019081526020016000206000015481526020016002600084815260200190815260200160002060010154815260200160026000848152602001908152602001600020600201548152508282815181106106f9576106f8611ab2565b5b60200260200101516000018190525060026000828152602001908152602001600020600401805480602002602001604051908101604052809291908181526020016000905b8282101561080c578382906000526020600020906002020160405180604001604052908160008201805461077190611803565b80601f016020809104026020016040519081016040528092919081815260200182805461079d90611803565b80156107ea5780601f106107bf576101008083540402835291602001916107ea565b820191906000526020600020905b8154815290600101906020018083116107cd57829003601f168201915b505050505081526020016001820154815250508152602001906001019061073e565b5050505082828151811061082357610822611ab2565b5b60200260200101516020018190525060026000828152602001908152602001600020600301805461085390611803565b80601f016020809104026020016040519081016040528092919081815260200182805461087f90611803565b80156108cc5780601f106108a1576101008083540402835291602001916108cc565b820191906000526020600020905b8154815290600101906020018083116108af57829003601f168201915b50505050508282815181106108e4576108e3611ab2565b5b602002602001015160400181905250808060010191505061067f565b508091505090565b60008054906101000a900473ffffffffffffffffffffffffffffffffffffffff1681565b6003602052806000526040600020600091509050805461094b90611803565b80601f016020809104026020016040519081016040528092919081815260200182805461097790611803565b80156109c45780601f10610999576101008083540402835291602001916109c4565b820191906000526020600020905b8154815290600101906020018083116109a757829003601f168201915b505050505081565b600154831115610a11576040517f08c379a0000000000000000000000000000000000000000000000000000000008152600401610a0890611c74565b60405180910390fd5b60026000848152602001908152602001600020600401805490508110610a6c576040517f08c379a0000000000000000000000000000000000000000000000000000000008152600401610a6390611ce0565b60405180910390fd5b610a7533610d99565b610ab4576040517f08c379a0000000000000000000000000000000000000000000000000000000008152600401610aab90611d4c565b60405180910390fd5b60026000848152602001908152602001600020600101544210158015610af0575060026000848152602001908152602001600020600201544211155b610b2f576040517f08c379a0000000000000000000000000000000000000000000000000000000008152600401610b2690611dde565b60405180910390fd5b6002600084815260200190815260200160002060050160003373ffffffffffffffffffffffffffffffffffffffff1673ffffffffffffffffffffffffffffffffffffffff16815260200190815260200160002060009054906101000a900460ff1615610bd0576040517f08c379a0000000000000000000000000000000000000000000000000000000008152600401610bc790611e70565b60405180910390fd5b60016002600085815260200190815260200160002060050160003373ffffffffffffffffffffffffffffffffffffffff1673ffffffffffffffffffffffffffffffffffffffff16815260200190815260200160002060006101000a81548160ff021916908315150217905550600260008481526020019081526020016000206004018181548110610c6457610c63611ab2565b5b90600052602060002090600202016001016000815480929190610c8690611b4e565b919050555060006040518060600160405280848152602001428152602001600115158152509050806002600086815260200190815260200160002060060160003373ffffffffffffffffffffffffffffffffffffffff1673ffffffffffffffffffffffffffffffffffffffff1681526020019081526020016000206000820151816000019081610d1691906119e0565b506020820151816001015560408201518160020160006101000a81548160ff0219169083151502179055509050503373ffffffffffffffffffffffffffffffffffffffff16847f2acce567deca3aabf56327adbb4524bd5318936eaefa69e3a5208ffda0cfec0984604051610d8b9190611303565b60405180910390a350505050565b600080600360008473ffffffffffffffffffffffffffffffffffffffff1673ffffffffffffffffffffffffffffffffffffffff1681526020019081526020016000208054610de690611803565b905014159050919050565b6040518060600160405280610e04610e18565b815260200160608152602001606081525090565b6040518060600160405280600390602082028036833780820191505090505090565b6000604051905090565b600080fd5b600080fd5b6000819050919050565b610e6181610e4e565b8114610e6c57600080fd5b50565b600081359050610e7e81610e58565b92915050565b600080fd5b6000601f19601f8301169050919050565b7f4e487b7100000000000000000000000000000000000000000000000000000000600052604160045260246000fd5b610ed282610e89565b810181811067ffffffffffffffff82111715610ef157610ef0610e9a565b5b80604052505050565b6000610f04610e3a565b9050610f108282610ec9565b919050565b600067ffffffffffffffff821115610f3057610f2f610e9a565b5b602082029050602081019050919050565b600080fd5b600080fd5b600067ffffffffffffffff821115610f6657610f65610e9a565b5b610f6f82610e89565b9050602081019050919050565b82818337600083830152505050565b6000610f9e610f9984610f4b565b610efa565b905082815260208101848484011115610fba57610fb9610f46565b5b610fc5848285610f7c565b509392505050565b600082601f830112610fe257610fe1610e84565b5b8135610ff2848260208601610f8b565b91505092915050565b600061100e61100984610f15565b610efa565b9050808382526020820190506020840283018581111561103157611030610f41565b5b835b8181101561107857803567ffffffffffffffff81111561105657611055610e84565b5b8086016110638982610fcd565b85526020850194505050602081019050611033565b5050509392505050565b600082601f83011261109757611096610e84565b5b81356110a7848260208601610ffb565b91505092915050565b600080600080608085870312156110ca576110c9610e44565b5b60006110d887828801610e6f565b94505060206110e987828801610e6f565b935050604085013567ffffffffffffffff81111561110a57611109610e49565b5b61111687828801611082565b925050606085013567ffffffffffffffff81111561113757611136610e49565b5b61114387828801610fcd565b91505092959194509250565b60006020828403121561116557611164610e44565b5b600061117384828501610e6f565b91505092915050565b61118581610e4e565b82525050565b600081519050919050565b600082825260208201905092915050565b60005b838110156111c55780820151818401526020810190506111aa565b60008484015250505050565b60006111dc8261118b565b6111e68185611196565b93506111f68185602086016111a7565b6111ff81610e89565b840191505092915050565b600060808201905061121f600083018761117c565b61122c602083018661117c565b611239604083018561117c565b818103606083015261124b81846111d1565b905095945050505050565b600073ffffffffffffffffffffffffffffffffffffffff82169050919050565b600061128182611256565b9050919050565b61129181611276565b811461129c57600080fd5b50565b6000813590506112ae81611288565b92915050565b6000602082840312156112ca576112c9610e44565b5b60006112d88482850161129f565b91505092915050565b600060208201905081810360008301526112fb81846111d1565b905092915050565b6000602082019050611318600083018461117c565b92915050565b6000806040838503121561133557611334610e44565b5b60006113438582860161129f565b925050602083013567ffffffffffffffff81111561136457611363610e49565b5b61137085828601610fcd565b9150509250929050565b600081519050919050565b600082825260208201905092915050565b6000819050602082019050919050565b600060039050919050565b600081905092915050565b6000819050919050565b6113cf81610e4e565b82525050565b60006113e183836113c6565b60208301905092915050565b6000602082019050919050565b611403816113a6565b61140d81846113b1565b9250611418826113bc565b8060005b8381101561144957815161143087826113d5565b965061143b836113ed565b92505060018101905061141c565b505050505050565b600081519050919050565b600082825260208201905092915050565b6000819050602082019050919050565b600082825260208201905092915050565b60006114998261118b565b6114a3818561147d565b93506114b38185602086016111a7565b6114bc81610e89565b840191505092915050565b600060408301600083015184820360008601526114e4828261148e565b91505060208301516114f960208601826113c6565b508091505092915050565b600061151083836114c7565b905092915050565b6000602082019050919050565b600061153082611451565b61153a818561145c565b93508360208202850161154c8561146d565b8060005b8581101561158857848403895281516115698582611504565b945061157483611518565b925060208a01995050600181019050611550565b50829750879550505050505092915050565b600060a0830160008301516115b260008601826113fa565b50602083015184820360608601526115ca8282611525565b915050604083015184820360808601526115e4828261148e565b9150508091505092915050565b60006115fd838361159a565b905092915050565b6000602082019050919050565b600061161d8261137a565b6116278185611385565b93508360208202850161163985611396565b8060005b85811015611675578484038952815161165685826115f1565b945061166183611605565b925060208a0199505060018101905061163d565b50829750879550505050505092915050565b600060208201905081810360008301526116a18184611612565b905092915050565b6116b281611276565b82525050565b60006020820190506116cd60008301846116a9565b92915050565b6000806000606084860312156116ec576116eb610e44565b5b60006116fa86828701610e6f565b935050602084013567ffffffffffffffff81111561171b5761171a610e49565b5b61172786828701610fcd565b925050604061173886828701610e6f565b9150509250925092565b7f53746172742074696d65206d757374206265206265666f72652073746f70207460008201527f696d650000000000000000000000000000000000000000000000000000000000602082015250565b600061179e602383611196565b91506117a982611742565b604082019050919050565b600060208201905081810360008301526117cd81611791565b9050919050565b7f4e487b7100000000000000000000000000000000000000000000000000000000600052602260045260246000fd5b6000600282049050600182168061181b57607f821691505b60208210810361182e5761182d6117d4565b5b50919050565b60008190508160005260206000209050919050565b60006020601f8301049050919050565b600082821b905092915050565b6000600883026118967fffffffffffffffffffffffffffffffffffffffffffffffffffffffffffffffff82611859565b6118a08683611859565b95508019841693508086168417925050509392505050565b6000819050919050565b60006118dd6118d86118d384610e4e565b6118b8565b610e4e565b9050919050565b6000819050919050565b6118f7836118c2565b61190b611903826118e4565b848454611866565b825550505050565b600090565b611920611913565b61192b8184846118ee565b505050565b5b8181101561194f57611944600082611918565b600181019050611931565b5050565b601f8211156119945761196581611834565b61196e84611849565b8101602085101561197d578190505b61199161198985611849565b830182611930565b50505b505050565b600082821c905092915050565b60006119b760001984600802611999565b1980831691505092915050565b60006119d083836119a6565b9150826002028217905092915050565b6119e98261118b565b67ffffffffffffffff811115611a0257611a01610e9a565b5b611a0c8254611803565b611a17828285611953565b600060209050601f831160018114611a4a5760008415611a38578287015190505b611a4285826119c4565b865550611aaa565b601f198416611a5886611834565b60005b82811015611a8057848901518255600182019150602085019450602081019050611a5b565b86831015611a9d5784890151611a99601f8916826119a6565b8355505b6001600288020188555050505b505050505050565b7f4e487b7100000000000000000000000000000000000000000000000000000000600052603260045260246000fd5b6000606082019050611af6600083018661117c565b611b03602083018561117c565b8181036040830152611b1581846111d1565b9050949350505050565b7f4e487b7100000000000000000000000000000000000000000000000000000000600052601160045260246000fd5b6000611b5982610e4e565b91507fffffffffffffffffffffffffffffffffffffffffffffffffffffffffffffffff8203611b8b57611b8a611b1f565b5b600182019050919050565b7f566f74657220616c72656164792070726573656e7420696e2074686520756e6960008201527f71756520766f74657273206d617070696e670000000000000000000000000000602082015250565b6000611bf2603283611196565b9150611bfd82611b96565b604082019050919050565b60006020820190508181036000830152611c2181611be5565b9050919050565b7f456c656374696f6e20496e646578206f7574206f6620626f756e647300000000600082015250565b6000611c5e601c83611196565b9150611c6982611c28565b602082019050919050565b60006020820190508181036000830152611c8d81611c51565b9050919050565b7f43616e64696461746520496e646578206f7574206f6620626f756e6473000000600082015250565b6000611cca601d83611196565b9150611cd582611c94565b602082019050919050565b60006020820190508181036000830152611cf981611cbd565b9050919050565b7f596f7520617265206e6f7420616c6c6f77656420746f20766f74650000000000600082015250565b6000611d36601b83611196565b9150611d4182611d00565b602082019050919050565b60006020820190508181036000830152611d6581611d29565b9050919050565b7f566f74696e67206973206e6f7420616c6c6f776564206174207468697320746960008201527f6d65000000000000000000000000000000000000000000000000000000000000602082015250565b6000611dc8602283611196565b9150611dd382611d6c565b604082019050919050565b60006020820190508181036000830152611df781611dbb565b9050919050565b7f596f75206861766520616c726561647920766f74656420696e2074686973206560008201527f6c656374696f6e00000000000000000000000000000000000000000000000000602082015250565b6000611e5a602783611196565b9150611e6582611dfe565b604082019050919050565b60006020820190508181036000830152611e8981611e4d565b905091905056fea26469706673582212204a303477515506b39eda6048653ed99dcdc03f4e1b8d030fe95e90c384948a2464736f6c63430008180033",
  "linkReferences": {},
  "deployedLinkReferences": {}
}