{
  "_format": "hh-sol-artifact-1",
  "contractName": "etherballot",
  "sourceName": "contracts/etherballot.sol",
  "abi": [
    {
      "inputs": [],
      "stateMutability": "nonpayable",
      "type": "constructor"
    },
    {
      "anonymous": false,
      "inputs": [
        {
          "indexed": true,
          "internalType": "uint256",
          "name": "id",
          "type": "uint256"
        },
        {
          "indexed": false,
          "internalType": "uint256",
          "name": "startTime",
          "type": "uint256"
        },
        {
          "indexed": false,
          "internalType": "uint256",
          "name": "stopTime",
          "type": "uint256"
        },
        {
          "indexed": false,
          "internalType": "string",
          "name": "title",
          "type": "string"
        }
      ],
      "name": "ElectionCreated",
      "type": "event"
    },
    {
      "anonymous": false,
      "inputs": [
        {
          "indexed": true,
          "internalType": "uint256",
          "name": "electionId",
          "type": "uint256"
        },
        {
          "indexed": true,
          "internalType": "address",
          "name": "voter",
          "type": "address"
        },
        {
          "indexed": false,
          "internalType": "uint256",
          "name": "candidateIndex",
          "type": "uint256"
        }
      ],
      "name": "VoteCast",
      "type": "event"
    },
    {
      "anonymous": false,
      "inputs": [
        {
          "indexed": true,
          "internalType": "address",
          "name": "voter",
          "type": "address"
        }
      ],
      "name": "VoterAdded",
      "type": "event"
    },
    {
      "inputs": [
        {
          "internalType": "address",
          "name": "_voter",
          "type": "address"
        },
        {
          "internalType": "string",
          "name": "_name",
          "type": "string"
        }
      ],
      "name": "addToUniqueVoters",
      "outputs": [],
      "stateMutability": "nonpayable",
      "type": "function"
    },
    {
      "inputs": [
        {
          "internalType": "uint256",
          "name": "_startTime",
          "type": "uint256"
        },
        {
          "internalType": "uint256",
          "name": "_stopTime",
          "type": "uint256"
        },
        {
          "internalType": "string[]",
          "name": "_candidates",
          "type": "string[]"
        },
        {
          "internalType": "string",
          "name": "_name",
          "type": "string"
        }
      ],
      "name": "createElection",
      "outputs": [],
      "stateMutability": "nonpayable",
      "type": "function"
    },
    {
      "inputs": [],
      "name": "electionCounter",
      "outputs": [
        {
          "internalType": "uint256",
          "name": "",
          "type": "uint256"
        }
      ],
      "stateMutability": "view",
      "type": "function"
    },
    {
      "inputs": [
        {
          "internalType": "uint256",
          "name": "",
          "type": "uint256"
        }
      ],
      "name": "elections",
      "outputs": [
        {
          "internalType": "uint256",
          "name": "id",
          "type": "uint256"
        },
        {
          "internalType": "uint256",
          "name": "startTime",
          "type": "uint256"
        },
        {
          "internalType": "uint256",
          "name": "stopTime",
          "type": "uint256"
        },
        {
          "internalType": "string",
          "name": "title",
          "type": "string"
        }
      ],
      "stateMutability": "view",
      "type": "function"
    },
    {
      "inputs": [],
      "name": "getAllElections",
      "outputs": [
        {
          "components": [
            {
              "internalType": "uint256[3]",
              "name": "electionDetails",
              "type": "uint256[3]"
            },
            {
              "components": [
                {
                  "internalType": "string",
                  "name": "name",
                  "type": "string"
                },
                {
                  "internalType": "uint256",
                  "name": "voteCount",
                  "type": "uint256"
                }
              ],
              "internalType": "struct etherballot.Candidate[]",
              "name": "candidates",
              "type": "tuple[]"
            }
          ],
          "internalType": "struct etherballot.ElectionReturnValue[]",
          "name": "",
          "type": "tuple[]"
        }
      ],
      "stateMutability": "view",
      "type": "function"
    },
    {
      "inputs": [
        {
          "internalType": "address",
          "name": "_voter",
          "type": "address"
        }
      ],
      "name": "getName",
      "outputs": [
        {
          "internalType": "string",
          "name": "",
          "type": "string"
        }
      ],
      "stateMutability": "view",
      "type": "function"
    },
    {
      "inputs": [],
      "name": "owner",
      "outputs": [
        {
          "internalType": "address",
          "name": "",
          "type": "address"
        }
      ],
      "stateMutability": "view",
      "type": "function"
    },
    {
      "inputs": [
        {
          "internalType": "uint256",
          "name": "_electionId",
          "type": "uint256"
        },
        {
          "internalType": "string",
          "name": "_voterName",
          "type": "string"
        },
        {
          "internalType": "uint256",
          "name": "_candidateIndex",
          "type": "uint256"
        }
      ],
      "name": "vote",
      "outputs": [],
      "stateMutability": "payable",
      "type": "function"
    },
    {
      "inputs": [
        {
          "internalType": "address",
          "name": "",
          "type": "address"
        }
      ],
      "name": "voterNameAddress",
      "outputs": [
        {
          "internalType": "string",
          "name": "",
          "type": "string"
        }
      ],
      "stateMutability": "view",
      "type": "function"
    }
  ],
  "bytecode": "0x608060405234801561001057600080fd5b50336000806101000a81548173ffffffffffffffffffffffffffffffffffffffff021916908373ffffffffffffffffffffffffffffffffffffffff1602179055506000600181905550611de4806100686000396000f3fe6080604052600436106100865760003560e01c80637022a5d7116100595780637022a5d71461015c5780637fd5f268146101855780638da5cb5b146101b0578063e43e8a0e146101db578063f0f454571461021857610086565b806324a8ea461461008b5780635e6fef01146100b45780635fd4b08a146100f457806361e3741714610131575b600080fd5b34801561009757600080fd5b506100b260048036038101906100ad9190610fe8565b610234565b005b3480156100c057600080fd5b506100db60048036038101906100d69190611087565b6103b4565b6040516100eb9493929190611142565b60405180910390f35b34801561010057600080fd5b5061011b600480360381019061011691906111ec565b61046c565b6040516101289190611219565b60405180910390f35b34801561013d57600080fd5b5061014661053d565b604051610153919061123b565b60405180910390f35b34801561016857600080fd5b50610183600480360381019061017e9190611256565b610543565b005b34801561019157600080fd5b5061019a610620565b6040516101a791906115a5565b60405180910390f35b3480156101bc57600080fd5b506101c5610847565b6040516101d291906115d6565b60405180910390f35b3480156101e757600080fd5b5061020260048036038101906101fd91906111ec565b61086b565b60405161020f9190611219565b60405180910390f35b610232600480360381019061022d91906115f1565b61090b565b005b828410610276576040517f08c379a000000000000000000000000000000000000000000000000000000000815260040161026d906116d2565b60405180910390fd5b600060026000600154815260200190815260200160002090506001548160000181905550848160010181905550838160020181905550818160030190816102bd91906118fe565b5060005b8351811015610356578160040160405180604001604052808684815181106102ec576102eb6119d0565b5b6020026020010151815260200160008152509080600181540180825580915050600190039060005260206000209060020201600090919091909150600082015181600001908161033c91906118fe565b5060208201518160010155505080806001019150506102c1565b506001547fc80cc2e5feebb8f2584e582a73d11665ee4037c2de81af1f971e18611fbceab186868560405161038d939291906119ff565b60405180910390a2600160008154809291906103a890611a6c565b91905055505050505050565b60026020528060005260406000206000915090508060000154908060010154908060020154908060030180546103e990611721565b80601f016020809104026020016040519081016040528092919081815260200182805461041590611721565b80156104625780601f1061043757610100808354040283529160200191610462565b820191906000526020600020905b81548152906001019060200180831161044557829003601f168201915b5050505050905084565b6060600360008373ffffffffffffffffffffffffffffffffffffffff1673ffffffffffffffffffffffffffffffffffffffff16815260200190815260200160002080546104b890611721565b80601f01602080910402602001604051908101604052809291908181526020018280546104e490611721565b80156105315780601f1061050657610100808354040283529160200191610531565b820191906000526020600020905b81548152906001019060200180831161051457829003601f168201915b50505050509050919050565b60015481565b61054c82610cd8565b1561058c576040517f08c379a000000000000000000000000000000000000000000000000000000000815260040161058390611b26565b60405180910390fd5b80600360008473ffffffffffffffffffffffffffffffffffffffff1673ffffffffffffffffffffffffffffffffffffffff16815260200190815260200160002090816105d891906118fe565b508173ffffffffffffffffffffffffffffffffffffffff167fa636f4a11e2d3ba7f89d042ecb0a6b886716e98cd49d8fd876ee0f73bced42b860405160405180910390a25050565b6060600060015467ffffffffffffffff8111156106405761063f610dd2565b5b60405190808252806020026020018201604052801561067957816020015b610666610d30565b81526020019060019003908161065e5790505b50905060005b60015481101561083f576040518060600160405280600260008481526020019081526020016000206000015481526020016002600084815260200190815260200160002060010154815260200160026000848152602001908152602001600020600201548152508282815181106106f9576106f86119d0565b5b60200260200101516000018190525060026000828152602001908152602001600020600401805480602002602001604051908101604052809291908181526020016000905b8282101561080c578382906000526020600020906002020160405180604001604052908160008201805461077190611721565b80601f016020809104026020016040519081016040528092919081815260200182805461079d90611721565b80156107ea5780601f106107bf576101008083540402835291602001916107ea565b820191906000526020600020905b8154815290600101906020018083116107cd57829003601f168201915b505050505081526020016001820154815250508152602001906001019061073e565b50505050828281518110610823576108226119d0565b5b602002602001015160200181905250808060010191505061067f565b508091505090565b60008054906101000a900473ffffffffffffffffffffffffffffffffffffffff1681565b6003602052806000526040600020600091509050805461088a90611721565b80601f01602080910402602001604051908101604052809291908181526020018280546108b690611721565b80156109035780601f106108d857610100808354040283529160200191610903565b820191906000526020600020905b8154815290600101906020018083116108e657829003601f168201915b505050505081565b600154831115610950576040517f08c379a000000000000000000000000000000000000000000000000000000000815260040161094790611b92565b60405180910390fd5b600260008481526020019081526020016000206004018054905081106109ab576040517f08c379a00000000000000000000000000000000000000000000000000000000081526004016109a290611bfe565b60405180910390fd5b6109b433610cd8565b6109f3576040517f08c379a00000000000000000000000000000000000000000000000000000000081526004016109ea90611c6a565b60405180910390fd5b60026000848152602001908152602001600020600101544210158015610a2f575060026000848152602001908152602001600020600201544211155b610a6e576040517f08c379a0000000000000000000000000000000000000000000000000000000008152600401610a6590611cfc565b60405180910390fd5b6002600084815260200190815260200160002060050160003373ffffffffffffffffffffffffffffffffffffffff1673ffffffffffffffffffffffffffffffffffffffff16815260200190815260200160002060009054906101000a900460ff1615610b0f576040517f08c379a0000000000000000000000000000000000000000000000000000000008152600401610b0690611d8e565b60405180910390fd5b60016002600085815260200190815260200160002060050160003373ffffffffffffffffffffffffffffffffffffffff1673ffffffffffffffffffffffffffffffffffffffff16815260200190815260200160002060006101000a81548160ff021916908315150217905550600260008481526020019081526020016000206004018181548110610ba357610ba26119d0565b5b90600052602060002090600202016001016000815480929190610bc590611a6c565b919050555060006040518060600160405280848152602001428152602001600115158152509050806002600086815260200190815260200160002060060160003373ffffffffffffffffffffffffffffffffffffffff1673ffffffffffffffffffffffffffffffffffffffff1681526020019081526020016000206000820151816000019081610c5591906118fe565b506020820151816001015560408201518160020160006101000a81548160ff0219169083151502179055509050503373ffffffffffffffffffffffffffffffffffffffff16847f2acce567deca3aabf56327adbb4524bd5318936eaefa69e3a5208ffda0cfec0984604051610cca919061123b565b60405180910390a350505050565b600080600360008473ffffffffffffffffffffffffffffffffffffffff1673ffffffffffffffffffffffffffffffffffffffff1681526020019081526020016000208054610d2590611721565b905014159050919050565b6040518060400160405280610d43610d50565b8152602001606081525090565b6040518060600160405280600390602082028036833780820191505090505090565b6000604051905090565b600080fd5b600080fd5b6000819050919050565b610d9981610d86565b8114610da457600080fd5b50565b600081359050610db681610d90565b92915050565b600080fd5b6000601f19601f8301169050919050565b7f4e487b7100000000000000000000000000000000000000000000000000000000600052604160045260246000fd5b610e0a82610dc1565b810181811067ffffffffffffffff82111715610e2957610e28610dd2565b5b80604052505050565b6000610e3c610d72565b9050610e488282610e01565b919050565b600067ffffffffffffffff821115610e6857610e67610dd2565b5b602082029050602081019050919050565b600080fd5b600080fd5b600067ffffffffffffffff821115610e9e57610e9d610dd2565b5b610ea782610dc1565b9050602081019050919050565b82818337600083830152505050565b6000610ed6610ed184610e83565b610e32565b905082815260208101848484011115610ef257610ef1610e7e565b5b610efd848285610eb4565b509392505050565b600082601f830112610f1a57610f19610dbc565b5b8135610f2a848260208601610ec3565b91505092915050565b6000610f46610f4184610e4d565b610e32565b90508083825260208201905060208402830185811115610f6957610f68610e79565b5b835b81811015610fb057803567ffffffffffffffff811115610f8e57610f8d610dbc565b5b808601610f9b8982610f05565b85526020850194505050602081019050610f6b565b5050509392505050565b600082601f830112610fcf57610fce610dbc565b5b8135610fdf848260208601610f33565b91505092915050565b6000806000806080858703121561100257611001610d7c565b5b600061101087828801610da7565b945050602061102187828801610da7565b935050604085013567ffffffffffffffff81111561104257611041610d81565b5b61104e87828801610fba565b925050606085013567ffffffffffffffff81111561106f5761106e610d81565b5b61107b87828801610f05565b91505092959194509250565b60006020828403121561109d5761109c610d7c565b5b60006110ab84828501610da7565b91505092915050565b6110bd81610d86565b82525050565b600081519050919050565b600082825260208201905092915050565b60005b838110156110fd5780820151818401526020810190506110e2565b60008484015250505050565b6000611114826110c3565b61111e81856110ce565b935061112e8185602086016110df565b61113781610dc1565b840191505092915050565b600060808201905061115760008301876110b4565b61116460208301866110b4565b61117160408301856110b4565b81810360608301526111838184611109565b905095945050505050565b600073ffffffffffffffffffffffffffffffffffffffff82169050919050565b60006111b98261118e565b9050919050565b6111c9816111ae565b81146111d457600080fd5b50565b6000813590506111e6816111c0565b92915050565b60006020828403121561120257611201610d7c565b5b6000611210848285016111d7565b91505092915050565b600060208201905081810360008301526112338184611109565b905092915050565b600060208201905061125060008301846110b4565b92915050565b6000806040838503121561126d5761126c610d7c565b5b600061127b858286016111d7565b925050602083013567ffffffffffffffff81111561129c5761129b610d81565b5b6112a885828601610f05565b9150509250929050565b600081519050919050565b600082825260208201905092915050565b6000819050602082019050919050565b600060039050919050565b600081905092915050565b6000819050919050565b61130781610d86565b82525050565b600061131983836112fe565b60208301905092915050565b6000602082019050919050565b61133b816112de565b61134581846112e9565b9250611350826112f4565b8060005b83811015611381578151611368878261130d565b965061137383611325565b925050600181019050611354565b505050505050565b600081519050919050565b600082825260208201905092915050565b6000819050602082019050919050565b600082825260208201905092915050565b60006113d1826110c3565b6113db81856113b5565b93506113eb8185602086016110df565b6113f481610dc1565b840191505092915050565b6000604083016000830151848203600086015261141c82826113c6565b915050602083015161143160208601826112fe565b508091505092915050565b600061144883836113ff565b905092915050565b6000602082019050919050565b600061146882611389565b6114728185611394565b935083602082028501611484856113a5565b8060005b858110156114c057848403895281516114a1858261143c565b94506114ac83611450565b925060208a01995050600181019050611488565b50829750879550505050505092915050565b60006080830160008301516114ea6000860182611332565b5060208301518482036060860152611502828261145d565b9150508091505092915050565b600061151b83836114d2565b905092915050565b6000602082019050919050565b600061153b826112b2565b61154581856112bd565b935083602082028501611557856112ce565b8060005b858110156115935784840389528151611574858261150f565b945061157f83611523565b925060208a0199505060018101905061155b565b50829750879550505050505092915050565b600060208201905081810360008301526115bf8184611530565b905092915050565b6115d0816111ae565b82525050565b60006020820190506115eb60008301846115c7565b92915050565b60008060006060848603121561160a57611609610d7c565b5b600061161886828701610da7565b935050602084013567ffffffffffffffff81111561163957611638610d81565b5b61164586828701610f05565b925050604061165686828701610da7565b9150509250925092565b7f53746172742074696d65206d757374206265206265666f72652073746f70207460008201527f696d650000000000000000000000000000000000000000000000000000000000602082015250565b60006116bc6023836110ce565b91506116c782611660565b604082019050919050565b600060208201905081810360008301526116eb816116af565b9050919050565b7f4e487b7100000000000000000000000000000000000000000000000000000000600052602260045260246000fd5b6000600282049050600182168061173957607f821691505b60208210810361174c5761174b6116f2565b5b50919050565b60008190508160005260206000209050919050565b60006020601f8301049050919050565b600082821b905092915050565b6000600883026117b47fffffffffffffffffffffffffffffffffffffffffffffffffffffffffffffffff82611777565b6117be8683611777565b95508019841693508086168417925050509392505050565b6000819050919050565b60006117fb6117f66117f184610d86565b6117d6565b610d86565b9050919050565b6000819050919050565b611815836117e0565b61182961182182611802565b848454611784565b825550505050565b600090565b61183e611831565b61184981848461180c565b505050565b5b8181101561186d57611862600082611836565b60018101905061184f565b5050565b601f8211156118b25761188381611752565b61188c84611767565b8101602085101561189b578190505b6118af6118a785611767565b83018261184e565b50505b505050565b600082821c905092915050565b60006118d5600019846008026118b7565b1980831691505092915050565b60006118ee83836118c4565b9150826002028217905092915050565b611907826110c3565b67ffffffffffffffff8111156119205761191f610dd2565b5b61192a8254611721565b611935828285611871565b600060209050601f8311600181146119685760008415611956578287015190505b61196085826118e2565b8655506119c8565b601f19841661197686611752565b60005b8281101561199e57848901518255600182019150602085019450602081019050611979565b868310156119bb57848901516119b7601f8916826118c4565b8355505b6001600288020188555050505b505050505050565b7f4e487b7100000000000000000000000000000000000000000000000000000000600052603260045260246000fd5b6000606082019050611a1460008301866110b4565b611a2160208301856110b4565b8181036040830152611a338184611109565b9050949350505050565b7f4e487b7100000000000000000000000000000000000000000000000000000000600052601160045260246000fd5b6000611a7782610d86565b91507fffffffffffffffffffffffffffffffffffffffffffffffffffffffffffffffff8203611aa957611aa8611a3d565b5b600182019050919050565b7f566f74657220616c72656164792070726573656e7420696e2074686520756e6960008201527f71756520766f74657273206d617070696e670000000000000000000000000000602082015250565b6000611b106032836110ce565b9150611b1b82611ab4565b604082019050919050565b60006020820190508181036000830152611b3f81611b03565b9050919050565b7f456c656374696f6e20496e646578206f7574206f6620626f756e647300000000600082015250565b6000611b7c601c836110ce565b9150611b8782611b46565b602082019050919050565b60006020820190508181036000830152611bab81611b6f565b9050919050565b7f43616e64696461746520496e646578206f7574206f6620626f756e6473000000600082015250565b6000611be8601d836110ce565b9150611bf382611bb2565b602082019050919050565b60006020820190508181036000830152611c1781611bdb565b9050919050565b7f596f7520617265206e6f7420616c6c6f77656420746f20766f74650000000000600082015250565b6000611c54601b836110ce565b9150611c5f82611c1e565b602082019050919050565b60006020820190508181036000830152611c8381611c47565b9050919050565b7f566f74696e67206973206e6f7420616c6c6f776564206174207468697320746960008201527f6d65000000000000000000000000000000000000000000000000000000000000602082015250565b6000611ce66022836110ce565b9150611cf182611c8a565b604082019050919050565b60006020820190508181036000830152611d1581611cd9565b9050919050565b7f596f75206861766520616c726561647920766f74656420696e2074686973206560008201527f6c656374696f6e00000000000000000000000000000000000000000000000000602082015250565b6000611d786027836110ce565b9150611d8382611d1c565b604082019050919050565b60006020820190508181036000830152611da781611d6b565b905091905056fea264697066735822122021ed558bfe49a443968aaa4dde1d87a074c954b217ed959d5652ff73522c8c4764736f6c63430008180033",
  "linkReferences": {},
  "deployedLinkReferences": {}
}